:020000040800F2
:10000000A00B0020A901000851250008812200084A
:100010004D2500085D0C00081D2A000800000000A6
:100020000000000000000000000000003D26000865
:10003000610C000800000000552500081D2700087D
:10004000C3010008C3010008C3010008C301000880
:10005000C3010008C3010008650C0008C3010008C3
:10006000C3010008C3010008C3010008C301000860
:10007000C3010008C3010008C3010008C301000850
:10008000C3010008C3010008C3010008C301000840
:10009000C3010008C3010008C3010008C301000830
:1000A000C301000825270008C3010008C301000898
:1000B000C3010008C301000875280008C301000837
:1000C000C3010008C3010008C3010008C301000800
:1000D000C3010008C3010008C3010008C3010008F0
:1000E000C3010008C3010008C301000800F002F8C2
:1000F00000F04AF80AA090E8000C82448344AAF178
:100100000107DA4501D100F03FF8AFF2090EBAE875
:100110000F0013F0010F18BFFB1A43F0010318473B
:100120007C6600009C660000103A24BF78C878C145
:10013000FAD8520724BF30C830C144BF04680C60ED
:10014000704700000023002400250026103A28BF35
:1001500078C1FBD8520728BF30C148BF0B60704739
:10016000662905F04680692900F0868000207047E6
:100170001FB500F0FDFB04000020002104F04AF848
:10018000E0601FBD10B510BD00F0F2FC1146FFF796
:10019000EFFF02F045FC00F010FD03B4FFF7F2FFA3
:1001A00003BC00F053FD00000948804709480047A0
:1001B000FEE7FEE7FEE7FEE7FEE7FEE7FEE7FEE717
:1001C000FEE7FEE704480549054A064B7047000074
:1001D00021270008ED000008A0050020A00B00204A
:1001E000A0070020A00700200FB41CB50C0007AA30
:1001F000009007D04142A14202D32044401E01E0BA
:100200004FF0FF30074B7B4469460190069800F0A1
:1002100094FB0020002C01D0009908701CBC5DF8F4
:1002200014FB00005707000070B50446856900689C
:10023000C10601D5302600E02026C00707D070BDDA
:10024000D4E9012130469047206A401C20626D1E8F
:10025000F6D570BD70B5044685690078C00707D132
:1002600070BDD4E9012120209047206A401C206203
:100270006D1EF6D570BD00002DE9F0410646002444
:1002800010687529314616A510D0AFF300800028FC
:1002900002DA404213A507E031688A0701D512A5AA
:1002A00002E0490704D511A5012401E0AFF3008065
:1002B00000210A2206F1240709E0B0FBF2FCB0FBA2
:1002C000F2F302FB1C00303078541846491C002819
:1002D000F3D123462A463046BDE8F04100F0C1B8CC
:1002E000000000002D0000002B0000002000000096
:1002F0002DE9F0474FF0000A89460446C0F820A0D7
:100300002046E1688847002876D0252806D0D4E921
:1003100001219047206A401C2062F1E7E1682046F5
:1003200000258847C4F81CA006460027C4F818A07A
:100330002A2E09D0304603F065FF38B304EB870856
:10034000303EC8F8186019E059F8041B204604EB49
:1003500087029161E1688847012F064618D1E0695C
:10036000002820DA25F020051DE0D8F8180000EB61
:10037000800006EB40003038C8F818002046E168DD
:100380008847064603F03EFF0028EED1012F0AD031
:100390002E2E08D12046E16888477F1C0646022F92
:1003A00045F02005C4DBA069002803DA404245F08F
:1003B0000105A061E80701D025F01005B6B1A6F14E
:1003C0004100192802D8203645F400654A463146D6
:1003D000204625604D46FFF7C3FE58B1012806D0E0
:1003E000ED1D25F0070000F1080989E704E005F19B
:1003F000040985E730468AE7206ABDE8F08702F005
:10040000FF0343EA032242EA024200F002B84FF03F
:10041000000200B5134694469646203922BFA0E854
:100420000C50A0E80C50B1F12001BFF4F7AF090760
:1004300028BFA0E80C5048BF0CC05DF804EB890051
:1004400028BF40F8042B08BF704748BF20F8022B94
:1004500011F0804F18BF00F8012B704770477047AC
:1004600070472DE9F0470D4699469246044600F143
:1004700024080168880604D5E06921F01001216094
:1004800000E00120A84201DD471B00E00027A16930
:100490007A1902EB0900081AA0612078C00602D47C
:1004A0002046FFF7C1FE002608E0D4E901211AF832
:1004B00006009047206A401C761C20624E45F4DB03
:1004C0002078C0060AD52046FFF7AEFE06E0D4E944
:1004D000012130209047206A401C2062381EA7F17D
:1004E0000107F4DC07E0D4E9012118F80500904782
:1004F000206A401C2062281EA5F10105F3DC20467D
:10050000FFF7A8FE2078000602D50220BDE8F0879C
:100510000120FBE72DE9FF4F0C461E464FF0FF3749
:100520008BB0D2E90001DDF860800A908A46C1F301
:100530000A5505B93D46002108464FF00000BAF1C2
:10054000000F00F4400005DA00EB80004FF440019A
:1005500001EA50004FEA9059B9F1010F00DDB946A8
:100560000A9850EA4A000ED044F61050A5F2FF3522
:1005700045432F14B8F1000F1ED07542291E1EDD11
:10058000C9F100021CE0B8F1010F4FF0000001D0EA
:10059000302103E0F24305E02154401CB042FBDB74
:1005A00030460022002121540B99C1F80880C1E98E
:1005B00000200FB0BDE8F08FBD1B6D1CDEE74A4682
:1005C00000DA694206A800F05DFA06AB93E807007E
:1005D00003AB83E8070050460A9903F036FA8DE82A
:1005E0000700A0F500501F3800900398002D0ADD89
:1005F00042F21F014A460844002303A903906846BB
:1006000003F0A0FC09E0A0F500504A461F38002383
:1006100003A90390684603F0AAFC8DE807000004D4
:10062000000C03D04FF0FF30410800E01046B8F155
:10063000000F03D00022009215461EE0751E05D45F
:1006400000F09AF9303262556D1EF9D5B346012299
:10065000084302D000227F1C04E02078302801D11A
:1006600000227F1E002A099784D01DE0112D07DA91
:1006700000F082F9303262556D1C50EA0102F5D16A
:10068000084302D00098C8B10EE00021681E05E0C2
:10069000235C625C63542254401E491C8142F7DB98
:1006A000AB46A81B401E0990002004F80B000B98D5
:1006B000099AC0F80880C0E9002B7AE711264FF0AC
:1006C000000857E72DE9F04F88460446D21D22F076
:1006D000070191B0D1E90001CDE90A0103F07EFDE7
:1006E00002460B98C00F01D02D2007E0206881073B
:1006F00001D52B2002E0202101EAC000032A099045
:1007000001D0072A05DB03464146204600F07AF96E
:100710000BE12078800601D5E06900E00620B8F101
:10072000650F814606D0B8F1660F18D0B8F1670F93
:1007300070D131E00020B9F1110F009001DB1123DD
:1007400001E009F101030AAA01A90CA8FFF7E2FEE2
:10075000DDE90C70002609F10105834647E0012020
:100760004B4600904FF000470AAA01A90CA8FFF7DA
:10077000D1FEDDE90DB00C995D46002610B909F1F6
:1007800001000D18B9EB050003D4C0F1FF3609F1E3
:100790000105A5EB09002BE0B9F1010F01DA4FF0DB
:1007A00001090020B9F1110F0090484601DD112325
:1007B00000E003460AAA01A90CA8FFF7ABFEDDE999
:1007C0000C704D4600268346207800070AD4AB45BE
:1007D00000DA5D4601A8012D04DD411911F8011C64
:1007E000302907D04F4502DA17F1040F04DA01204F
:1007F00082460FE06D1EEEE7002F02DCED1B3E444B
:1008000003E0781CA84200DD7D1CB81B00F1010A42
:100810004FF000472078000703D4AA4501DB4FF0D2
:10082000FF3A0021B7F1004F0DF143088DF8431056
:1008300024D002202B23002F01DA7F422D230A210E
:10084000021EA0F1010000DC5FB197FBF1FC97FBF9
:10085000F1F201FB1C7C17460CF1300C08F801CDBD
:10086000EEE7A8F1010003702188090501D54521B3
:1008700000E06521A0F1010800F8011C09980FA90A
:10088000A1EB0807FF1D00B10120411901EBEA703F
:10089000A1693844081A401EA0612078C00602D41D
:1008A0002046FFF7C1FC099828B1D4E901219047FF
:1008B000206A401C20622078C00622D52046FFF71F
:1008C000B3FC1EE0002E04DBB34502DD01A8805D11
:1008D00000E03020D4E901219047206A401C2062CA
:1008E000761CAAF101005FEA000A0AD100F040F884
:1008F000C0680168405CD4E901219047206A401C2F
:100900002062281EA5F10105DCDC07E0D4E9012105
:1009100018F8010B9047206A401C2062381EA7F18E
:100920000107F3DC2046FFF795FC032011B041E6F8
:1009300001694A1C02610878704700B58FB0CDE9A3
:1009400001310021059105497944CDE90310114693
:100950006846FFF7CDFC0FB000BD0000E5FFFFFFCC
:10096000D1E900239A4202D2531C0B6010707047E9
:10097000004870473000002030B5B0F10A0271F134
:1009800000034FEA900E4EEA817EB0EB0E0061EB61
:1009900091014FEA101E4EEA017E10EB0E0041EB72
:1009A00011114FEA102E4EEA016E10EB0E0041EBD2
:1009B00011214FEA104E4EEA014E10EB0E0041EBB2
:1009C0001141401841F100014FEAD00040EA417066
:1009D0004FEAD1014FEA810444EA907410EB80059C
:1009E00044EB01046D1944EB0404521BA3414FF086
:1009F000000348BF0A3200D530BD401C41F1000160
:100A000030BD00002DE9F0411F4604460326016871
:100A1000072A01F4006004DB08B116A505E016A55D
:100A200003E008B115A500E015A521F01000206035
:100A3000A069C01EA0610FB1401EA0612046FFF753
:100A4000F3FB4FB1D4E9012138469047206A401C9E
:100A50002062C01C206206E0206AFAE7D4E9012186
:100A600015F8010B9047761EF8D22046FFF7F2FBEF
:100A7000BDE8F0814E414E006E616E00494E460069
:100A8000696E66002DE9F047814616468AB0354802
:100A900078440DC88DE80D0032487844801C03ACC2
:100AA0000DC884E80D0041F69B300844372190FBC7
:100AB000F1F290FBF1F5A5F1800501FB12041B3C5E
:100AC00002D56442012000E00020DFF898A08046B3
:100AD0000027FA44AAF1BE0A0EE0E0070AD0324627
:100AE000684607EB470101230AEB810103F03FFA57
:100AF0008DE8070064107F1C002CEED1194F7F4455
:100B0000AE3F19E0E80715D007EB04100DF1180A05
:100B100090E80E008AE80E00C068F04201D19819F2
:100B200008903246012306A903A803F020FA03AB7C
:100B300083E807006D10641C002DE3D14FF0010322
:100B400032466946B8F1000F03A802D003F0FAF963
:100B500001E003F00CFAC9E90001C9F808200AB065
:100B6000BDE8F087E0470000004870471000002013
:100B70007546FFF7F9FFAE4605006946534620F07B
:100B80000700854618B020B5FFF71CFBBDE82040E4
:100B90004FF000064FF000074FF000084FF0000B39
:100BA000AC46ACE8C009ACE8C009ACE8C009ACE8A8
:100BB000C00921F007018D46704710B50446AFF318
:100BC00000802046BDE81040FFF7E7BA4FF0013C37
:100BD00050F8042B51F8043B9A4221D1A2EB0C03AC
:100BE000934313EACC1317D150F8042B51F8043B6C
:100BF0009A4215D1A2EB0C03934313EACC130BD109
:100C000050F8042B51F8043B9A4209D1A2EB0C0393
:100C1000934313EACC13DBD04FF00000704700BFC2
:100C2000D01A01BAB1FA81F101F0180122FA01F0EB
:100C3000CB40DBB2C0B2C01AC1F120012CFA01F3E3
:100C4000D11A914311EAC311E6D170470149182026
:100C5000ABBEFEE72600020070470000FEE7000082
:100C600070470000012000F01DB80000EFF3108075
:100C700072B600BFFEE70000B0B5044600F03AF9D6
:100C8000054640F20000C2F200000078611C18BF67
:100C9000044400BF00F02EF9401BA042FAD3B0BDBF
:100CA0007047000040F21441C4F201010A68024298
:100CB00014BF08607047FFF7F3BF00002DE9F04F45
:100CC00082B00E68002E00F0038141F20042C4F2AF
:100CD0000102042340F2004E904208BF03234FF666
:100CE000FF7CC4F2010E009300240123C1F2100C1A
:100CF0004FF0000A4FF0000949E000BF012704F05F
:100D00000C030F229A402BEA020207FA03F34FEA80
:100D10009A051A4346F82520D1F804B040F20C4554
:100D20005FEACB22DEF8082054BF22EA080242EA3A
:100D30000802C4F20105CEF808202A685FEA8B2376
:100D400054BF22EA080242EA08022A605FEA8B33B3
:100D5000DEF8042054BF22EA080242EA08025FEAF1
:100D6000CB33CEF80420DEF800204FF0010354BF4F
:100D700022EA080242EA0802CEF800200E680AF1D0
:100D8000010A36FA0AF204F1040400F0A18003FA21
:100D90000AF816EA080FF1D04E68664512DC122EEA
:100DA00056D8DFE806F0350B45495555555555558C
:100DB000555555555555554D510000BFD1F80C901E
:100DC00046E000BF4FF6FF72C1F2210296420FDCEF
:100DD0000022C1F2110296421AD00022C1F2120280
:100DE000964215D00022C1F22102964210D02FE087
:100DF0000022C1F2220296420AD00022C1F2310240
:100E0000964205D00022C1F23202964220D100BFA4
:100E10008A684AB1012A14BFC0F81480C0F8108053
:100E20004FF0080914E000BF4FF0040910E000BFC4
:100E3000CA6802F108090BE04FF0000908E000BFA2
:100E4000CA6802F1040903E0CA6802F10C0900BF94
:100E500022460646BAF1080F24BF203A0436376806
:100E60000F25954027EA050509FA02F22A43326068
:100E7000CA79D2067FF582AF41F21803C4F20203A9
:100E80001A68AEF57E7642F001021A601A6802F026
:100E900001020192019A2AF0030256F802B040F6CC
:100EA0000002C4F20102904210D040F60042C4F2A7
:100EB000010290423FF422AF41F20002C4F201026B
:100EC000009F904208BF022719E700BF002716E7DE
:100ED00002B0BDE8F08F0000C26802EA010391434E
:100EE00041EA034101617047002A08BF090401611A
:100EF0007047000040F29850C2F20000006870474E
:100F000040F2000040F29851C2F20000C2F200012B
:100F100000780A68104408607047000080B542F20B
:100F20000000C4F20200016841F0100101600320DA
:100F300000F08EF80F2000F005F800F027F80020F0
:100F400080BD000070B540F20006C2F2000640F21B
:100F500008013278C2F200014FF47A730968B3FBDA
:100F6000F2F20446B1FBF2F1084600F0C1FC0F2C8E
:100F70004FF0010508D838B94FF0FF302146002264
:100F8000002500F039F87460284670BD82B041F247
:100F90001800C4F202000168022241F00101016060
:100FA000016801F0010101910199416841F080510E
:100FB0004160406800F08050009000980420C4F226
:100FC0000100016862F31A61016002B0704700001D
:100FD000002848BF7047C1B200F01F00012202FA8A
:100FE00000F04EF20012CEF2000242EAD10121F0EE
:100FF000030108607047000010B54EF60C5CCEF29D
:10100000000CDCF80030C3F3022E8EF00704042C31
:1010100028BF0424BEF103034FF0FF3E0EFA04F490
:1010200038BF0023A14399400EFA03F39A431143BA
:1010300000F00F0200F160430901043A03F5644334
:101040006244002848BF02F10C03197010BD000073
:101050004EF60C51CEF200010A684FF6FF031A401B
:1010600060F30A2242F0806040F0FD700860704733
:101070002DE9F04381B0002800F0858042F200089D
:10108000C4F202080446D8F800000D4600F007003C
:1010900088420CD2D8F8000020F007002843C8F896
:1010A0000000D8F8000000F00700A8426BD12068CB
:1010B00041F204098107C4F2020917D5410705D599
:1010C000D9F8001041F4E061C9F80010010705D516
:1010D000D9F8001041F46051C9F80010D9F8001097
:1010E000A26821F0F0011143C9F80010C00741D1F6
:1010F000D8F8000000F00700A8420CD9D8F800008A
:1011000020F007002843C8F80000D8F8000000F0DD
:101110000700A84237D12068410707D5D9F8001049
:10112000E26821F4E0611143C9F80010000708D516
:10113000D9F80000216920F4605040EAC100C9F8E4
:101140000000D9F8002002F00C00082841F200202D
:10115000C0F27A0050D146F27E73C2F38341C0F6EA
:101160000003595CD2033BD440F60010C0F23D00AE
:10117000484341E0606802280AD001282AD159F882
:10118000041C890308D4012001B0BDE8F08300BF2E
:1011900059F8041C8901F6D5D9F8001021F0030193
:1011A0000843C9F80000FFF7A5FE064641F288375C
:1011B000D9F80000616800F00C00B0EB810F97D007
:1011C000FFF798FE801BB842F2D9032001B0BDE8BA
:1011D000F08300BF59F8041C8907D4D5DCE700BFB1
:1011E000D9F8002046F27C73C2F34042C0F60003F7
:1011F0009A5C4843B0FBF2F0D9F8001045F28C221B
:10120000C1F30311C0F60002515C40F2080220FA5B
:1012100001F140F20400C2F200000068C2F20002D4
:101220001160FFF78FFE002001B0BDE8F0830000E1
:101230002DE9F04182B0002868D00446007841F2E0
:101240000006C007C4F2020625D0706800F00C004A
:1012500004281BD0706800F00C00082802D17068C8
:10126000C00313D46068002800F06881B0F5A02F97
:1012700000F07C81B0F5803F00F07C81306820F484
:1012800080303060306820F4802076E13068800360
:1012900001D56068D0B32078800718D5706810F049
:1012A0000C0F07D0706800F00C0008286ED1706831
:1012B000C0036BD43068800702D52069012825D18E
:1012C0003068616920F0F80040EAC10030602078A1
:1012D00000071FD42078400732D4E56995B17068C3
:1012E00000F00C00082840F08F80012D0ED07068AF
:1012F000216A00F480328A4208D1616A00F47010D9
:10130000884203D1002002B0BDE8F081012002B084
:10131000BDE8F081A069002862D00020C4F242201C
:101320000121C0F88014FFF7E5FD0546706A8007CB
:1013300000F18C80FFF7DEFD401B0228F6D92AE180
:10134000F06910F0805808D1F06940F08050F061E9
:10135000F06900F080500090009847F20007C4F256
:1013600000073868C00529D4386840F480703860B8
:10137000FFF7C0FD054600BF3868C0051ED4FFF763
:10138000B9FD401B6428F7D905E100BF206900289A
:1013900040F20000C4F2422000F08280012101608E
:1013A000FFF7A8FD054600BF306880073FF588AF0E
:1013B000FFF7A0FD401B0228F6D9ECE0E06800280A
:1013C00000F08080052800F09780012800F09880C8
:1013D000306A20F001003062306A20F0040092E0B0
:1013E0000020C4F242200021C0F88014FFF782FDE3
:1013F000054600BF706A80077FF56CAFFFF77AFD86
:10140000401B0228F6D9C6E00027C4F2422700207C
:101410003866FFF76FFD022D05460BD1306880015D
:1014200040F1BE80FFF766FD401B02284FF003002D
:10143000F4D968E7306880017FF564AFFFF75AFDA3
:10144000401B02284FF00300F4D95CE740F208008B
:10145000C2F20000006844F6D351C1F26201A0FB61
:101460000101480A019000BF00BF0198411E0028F9
:1014700001913FF42FAF00BF0198411E0028019158
:101480003FF428AF00BF0198411E002801913FF4AE
:1014900021AF00BF0198411E00280191E4D119E756
:1014A00000210160FFF726FD054600BF3068800778
:1014B0007FF50DAFFFF71EFD401B02284FF0030024
:1014C000F4D920E7306A20F001003062306A20F061
:1014D00004003062FFF70EFD054641F2883700BF79
:1014E000306A800720D5FFF705FD401BB8424FF05A
:1014F0000300F5D907E700BF306A40F0040030620E
:10150000306A40F001003062FFF7F4FC054641F21A
:10151000883700BF306A800706D4FFF7EBFC401B1A
:10152000B842F7D937E000BFB8F1000F7FF4D5AE6D
:10153000F06920F08050F061CFE600BF306820F401
:1015400080303060306820F480203060FFF7D2FCBB
:10155000054600BF306880037FF59DAEFFF7CAFCEB
:10156000401B64284FF00300F4D9CCE6306840F407
:1015700080203060306840F480303060FFF7BAFC83
:10158000054600BF306880033FF585AEFFF7B2FC2B
:10159000401B6428F6D9032002B0BDE8F08100BFEB
:1015A000206AB0F5803F05D17168A26821F400314E
:1015B000114371607168626A21F474111143084328
:1015C000706001203866FFF795FC044630688001A2
:1015D0003FF598AEFFF78EFC001B02284FF003008A
:1015E000F4D990E670B538B10446406A30B10020B5
:1015F000206104F1140007E0012070BD6068B0F5BF
:10160000827F03D004F11C00002101600026A66245
:1016100094F8510020B9204684F8506000F038F862
:10162000022084F8510094E8071001F482710368E5
:1016300002F4044223F040030360236911440CF4D4
:101640000062114403F002026369114403F00102D5
:10165000A369E569114403F40072114405F03802EE
:10166000256A114405F08002A56A114305F4005271
:1016700011430160042101EA13414160C16921F471
:101680000061C1610120666584F85100304670BD7B
:1016900080B586B0014640F60000C4F2010009683A
:1016A00000F5205300229942049201D006B080BD7B
:1016B00041F21801C4F202010A6842F480520A6041
:1016C0000A6802F480520192019A0A6842F0040208
:1016D0000A60096801F0040101910199A0210291B9
:1016E000022103910321059102A9FFF7E7FA06B051
:1016F00080BD00002DE9F04182B0044690F8500012
:10170000012803D1022002B0BDE8F08101201D466E
:1017100016460F4684F85000FFF7ECFB94F8511082
:1017200001290DD18046002F4FF0010018BF002E77
:101730000ED1002184F8501002B0BDE8F08100BF46
:101740000220002184F8501002B0BDE8F08100BFF3
:101750000320002184F8510061652763A686E68690
:10176000A163A187E187A0682164B0F5004F2068DC
:10177000616407D1016821F040010160016841F412
:10178000804101600168490603D4016841F04001CD
:1017900001606168731EE268B1FA81F1B3FA83F304
:1017A00049095B09B2F5006F41EA03013CD131B14F
:1017B00037F8021BC1602763E08E0138E086E08EB7
:1017C00000286BD0681C0CD11DE000BF216B31F8E4
:1017D000022BC2602163E08E0138E086E08E002893
:1017E0005CD0206881688907F0D4FFF783FBA0EB09
:1017F0000800A842F2D3032071E000BFFFF77AFB94
:10180000E08E00284AD0206881688907F6D5216BD0
:1018100031F8022BC2602163E08E0138E086E08E51
:101820000028F0D13AE000BF39B139780173206B5C
:1018300001302063E08E0138E086E08E70B3681CD2
:101840000BD11BE0216B09780173206B0130206301
:10185000E08E0138E086E08E00B320688168890759
:10186000F0D4FFF747FBA0EB0800A842F3D3032016
:1018700035E000BFFFF73EFBE08E78B1206881685D
:101880008907F7D5216B09780173206B013020633C
:10189000E08E0138E086E08E0028EFD120468021DE
:1018A0002A46434600F058FE28B1606D40F0200003
:1018B000606520206065A06838B90020019020682C
:1018C000C1680191806801900198606D30B101207C
:1018D000002184F8501002B0BDE8F0810020012101
:1018E00084F85110002184F8501002B0BDE8F08156
:1018F000411E0020B0EB116F1CBF012070474EF25B
:101900001002CEF2000251604EF62351CEF20001D9
:10191000F0230B7007219060116070477047000042
:101920007047000010B590F83C20012A4FF00202E9
:1019300033D080F83D200268D2F804E0D2F808C025
:101940000C682EF07003234340F2FF74C4F20004CD
:10195000A24253600ADCB2F1804F13D040F2004340
:10196000C4F200039A420DD011E000BF42F60043DA
:10197000C4F201039A4205D040F60003C4F200030A
:101980009A4204D149682CF08003194391600121E7
:10199000002280F83D1080F83C20104610BD000069
:1019A000002804BF0120704710B5044690F83D00A0
:1019B00028B9002084F83C00204600F067F8022097
:1019C00084F83D00206840F2FF730268C4F200030F
:1019D00042F6004C9842C4F2010C15DCB0F1804F85
:1019E0001AD040F20041C4F20001884214D098425B
:1019F00018DCB0F1804F1DD040F20041C4F200016C
:101A0000884217D01AE000BF604505D040F60001BB
:101A1000C4F200018842EAD1A16822F070020A43B0
:101A20009842E6DD604505D040F60001C4F20001B1
:101A3000884203D1216922F440720A43A36922F04B
:101A40008001D4F804E0E268194360450160C26295
:101A5000C0F828E002D16169CCF830100121416161
:101A6000002084F8461084F83E1084F83F1084F873
:101A7000401084F8411084F8421084F8431084F830
:101A8000441084F8451084F83D1010BD80B586B030
:101A9000006840F60002C4F2000200219042059165
:101AA00032D042F60041C4F2010188422AD141F20B
:101AB0001800C4F20200016841F40061016001688D
:101AC00001F4006101910199016841F00401016094
:101AD000006802A900F00400019001984FF48070A2
:101AE00002900020CDE9030040F60000C4F201009E
:101AF000FFF7E4F8192001210022FFF77DFA1920F1
:101B0000FFF766FA06B080BD41F21800C4F2020089
:101B10004168002241F0040141604068032100F067
:101B20000400019001981E20FFF766FA1E2006B0FF
:101B3000BDE88040FFF74CBA90F83D1001291CBF6A
:101B400001207047022180F83D10006840F2FF72CA
:101B5000C168C4F20002904241F00101C16009DC99
:101B6000B0F1804F12D040F20041C4F2000188422F
:101B70000CD012E042F60041C4F20101884205D0C7
:101B800040F60001C4F20001884206D1816801F0EC
:101B90000701062904BF00207047016841F00101D8
:101BA000016000207047000080B590F83C20012AB9
:101BB0004FF0020200F0C28080F83D20D0F800C053
:101BC0004FF67772DCF8083023EA0202CCF80820DE
:101BD0000B684F2B28DC1F2B44DD202B45D0302BEE
:101BE00043D0402B40F0AC80D1F804E0C968DCF869
:101BF0002030DCF8202022F00102CCF82020DCF894
:101C0000182022F0F00242EA011123F00A0242EA0F
:101C10000E02CCF81810CCF82020DCF8081041F0A7
:101C2000470121F0300180E06F2B27DDB3F5005F25
:101C300048D0B3F5805F7AD0702B40F08180D1E935
:101C400001E3C968DCF8082043EA0E0322F47F426E
:101C500043EA01211143CCF80810DCF8081041F0E8
:101C6000770162E00BB1102B6AD1DCF8081021F08B
:101C70007001194341F0070157E000BF502B35D0E8
:101C8000602B5DD1D1F804E0C968DCF82030DCF8C5
:101C9000202022F01002CCF82020DCF8182022F4BA
:101CA000704242EA013123F0A00242EA0E12CCF85F
:101CB0001810CCF82020DCF8081041F0670121F062
:101CC000100132E0D1E901E3C968DCF8082043EAF9
:101CD0000E0322F47F4243EA01211143CCF808109D
:101CE000DCF8081041F480411FE000BFD1F804E0A7
:101CF000C968DCF82030DCF8202022F00102CCF8A2
:101D00002020DCF8182022F0F00242EA011123F032
:101D10000A0242EA0E02CCF81810CCF82020DCF8B7
:101D2000081041F0570121F02001CCF808100022E2
:101D3000012180F83D10002180F83C10104680BD44
:101D40000122F5E770470000F0B590F83C30012B18
:101D500004BF0220F0BD4FEAB202032A22D8DFE816
:101D600002F00327476500BF0368D1E900C5D1F839
:101D70000CE01C6A1A6A40F2FF7722F001021A6234
:101D80001A4652F8186FC4F20007BB4272DCB3F176
:101D9000804F7BD040F20047C4F20007BB4275D0B1
:101DA0008EE000BF0121002280F83C200846F0BDF3
:101DB0000368D1E900E6D1E902C11C6A1A6A360259
:101DC00022F010021A621A4652F8185F4FF2FF070B
:101DD000BE4325F4734561F30F3624F0A0040EF0E2
:101DE0000A0746EA050144EA071711601F623AE054
:101DF0000768D1E900C5D1E902313C6A3A6A61F36A
:101E0000071522F480723A623A4652F81C6F26F0A7
:101E1000F30645EA06014FEA5C0666F349241160C1
:101E20003C62116821F00C01116040E00368D1E9C7
:101E300000E6D1E902C11C6A1A6A360222F4805215
:101E40001A621A4652F81C5F4FF2FF07BE4325F490
:101E5000734561F30F364FEA5E0746EA050167F303
:101E60004D3411601C6211684FEA0C2321F440616B
:101E700011601CE042F60047C4F20107BB4205D0E6
:101E800040F60007C4F20007BB4219D126F0030652
:101E9000354324F00A070CF00A066EF307153744A1
:101EA0009D611F629F6927F00C079F618B68116815
:101EB000194311600021002280F83C200846F0BD43
:101EC00046F00105E5E70000002804BF0120704747
:101ED00010B5044690F83D0028B9002084F83C0075
:101EE000204600F067F8022084F83D00206840F2A8
:101EF000FF730268C4F2000342F6004C9842C4F239
:101F0000010C15DCB0F1804F1AD040F20041C4F250
:101F10000001884214D0984218DCB0F1804F1DD0E7
:101F200040F20041C4F20001884217D01AE000BF1D
:101F3000604505D040F60001C4F200018842EAD1B4
:101F4000A16822F070020A439842E6DD604505D0A0
:101F500040F60001C4F20001884203D1216922F455
:101F600040720A43A36922F08001D4F804E0E268D9
:101F7000194360450160C262C0F828E002D161697E
:101F8000CCF8301001214161002084F8461084F81B
:101F90003E1084F83F1084F8401084F8411084F813
:101FA000421084F8431084F8441084F8451084F8F3
:101FB0003D1010BD7047000061B1082916D00429FA
:101FC00019BF00F1410200F1450300F13F0200F1A9
:101FD00043030FE090F83E2090F84230012A4FF082
:101FE000010208BF012B17D01046704700F14002D4
:101FF00000F1440312781B78012A4FF0010208BF58
:10200000012BF1D1022208290CD0042910D180F82B
:102010003F2080F843200FE0022280F83E2080F825
:10202000422009E080F8402080F8442004E000BF0E
:1020300080F8412080F84520006801F01F0101224E
:10204000036A02FA01F123EA01020262026A114301
:1020500040F2FF72C4F20002904201620ADCB0F169
:10206000804F13D040F20041C4F2000188420DD0ED
:1020700013E000BF42F60041C4F20101884205D0DE
:1020800040F60001C4F20001884206D1816801F0E7
:102090000701062904BF002070470168002241F0B3
:1020A000010101601046704710B5016804460869D7
:1020B000800744BFC8685FEA807039D40869400768
:1020C00044BFC8685FEA40703ED40869000744BF57
:1020D000C8685FEA007045D40869C00644BFC86894
:1020E0005FEAC0604AD40869C0071CBFC8685FEADD
:1020F000C07051D10869000644BFC8685FEA00603B
:1021000052D40869400644BFC8685FEA406053D4AF
:102110000869800646BFC8685FEA806010BD6FF03E
:10212000200220460A61BDE81040FFF7F9BB00BF5E
:102130006FF002000861012020778869800743D092
:102140002046FFF7FFFD45E06FF004000861022024
:102150002077886910F4407F40D02046FFF7F2FDD9
:1021600042E000BF6FF00800086104202077C869D2
:1021700080073DD02046FFF7E5FD3FE06FF01000FF
:10218000086108202077C86910F4407F3AD02046C3
:10219000FFF7D8FD3CE000BF6FF00100086120466A
:1021A00000F03EF82168A5E76FF080000861204646
:1021B000FFF7B4FB2168A4E76FF0400008612046F8
:1021C00000F05CF82168A3E7204600F025F82046DF
:1021D00000F024F82168002020776FE7204600F007
:1021E0001BF8204600F01AF82168002020776CE7E1
:1021F000204600F011F8204600F010F82168002079
:10220000207769E7204600F007F8204600F006F83E
:1022100021680020207766E77047000070470000C3
:1022200070470000B0B5044690F83C0001284FF01C
:10223000020008BFB0BD012584F83C5084F83D0081
:10224000204600F06DFB00284FF0010006D0002171
:1022500084F83D5084F83C10B0BD00BF2068C168D0
:1022600021F04001C160C16821F48041C1600020BB
:10227000002184F83D5084F83C10B0BD7047000048
:10228000FEE700002DE9F04F85B041F21800C4F2DE
:102290000200016840F6000841F010010160016889
:1022A000C4F2010801F0100101910199016808F5DB
:1022B000006641F0200101600168012201F0200167
:1022C0000191019901684FF4005741F00401016048
:1022D0000168012401F0040101910199016841F0B4
:1022E0000801016000684FF4005100F008000190FF
:1022F00001983046FEF7F8FD4046022100224FF0DB
:1023000002094FF0000AFEF7EFFD08F58065284648
:10231000072100224FF0070BFEF7E6FD0197112081
:1023200002A901AF81E8110230463946FEF7C6FC2A
:102330000020C1F22100CDE9020440463946019453
:10234000FEF7BCFC40463946CDE90194CDE903A92E
:10235000FEF7B4FC28463946CDE901B4CDE903A91E
:10236000FEF7ACFC062002210022FEF745FE062007
:10237000FEF72EFE05B0BDE8F08F000010B540F26C
:10238000A84043F2000CC2F20000C4F2010C4FF46A
:1023900082724FF4004300214FF4007E1824C0E9FC
:1023A00000C20A22C0E90231C0E90411C0E906E412
:1023B000C0E90811C0E90A12FFF714F9002808BFA4
:1023C00010BDBDE81040FEF751BC000010B590B044
:1023D00040F2005042F600420021C2F20000C4F276
:1023E000010202234FF6FF740F91CDE90D110B91FD
:1023F000CDE90911CDE90711CDE90411CDE90211AB
:10240000CDE90011C0E90023C0E90214C0E90411BC
:102410008161FFF7C5FA002818BFFEF727FC4FF4CB
:1024200080500C9040F20050C2F200000CA9FFF75F
:10243000BBFB002818BFFEF719FC40F20050C2F2A7
:102440000000FFF741FD002818BFFEF70FFC042035
:1024500007905020089040F200500024C2F2000083
:1024600007A909940B94FFF7DDFE002818BFFEF7BB
:10247000FDFB40F20050C2F2000004A9CDE9044483
:10248000FFF750FA002818BFFEF7F0FB00200121EB
:102490000090CDE90110039040F20050C2F200001C
:1024A00069460022FFF750FC002818BFFEF7DEFB4C
:1024B0000220CDE9000040F20050C2F2000069465F
:1024C0000422FFF741FC002818BFFEF7CFFB10B035
:1024D00010BD000080B586B040F2485040F60002C2
:1024E0000021C2F20000C4F2000241F61F4340F294
:1024F000F31C0591CDE90311CDE90011C0E90023DA
:10250000C0E9021C01618161FFF74AFA002818BF87
:10251000FEF7ACFB4FF48050029040F24850C2F2FC
:10252000000002A9FFF740FB002818BFFEF79EFB42
:1025300040F24850C2F200006946FFF7F3F9002864
:1025400018BFFEF793FB06B080BD0000FEE7000059
:10255000FEE70000704700002DE9F04182B01E4602
:1025600090460D460446FEF7C5FC301A00EB0807FE
:10257000FEF7C0FC40F20801C2F200010968C1F395
:10258000CB317943019121688A682A40AA4227D138
:10259000064618F101001FD0FEF7ACFC801BB842C4
:1025A00022D2019801990028A1F10101019121682D
:1025B000896808BF074601EA0500A842ECD00FE091
:1025C00088682840A8420BD188682840A84207D1D3
:1025D00088682840A84203D188682840A842EFD0E4
:1025E000002002B0BDE8F081D4E900014268B1F5F5
:1025F000827F22F0E00242600AD1A168B1F5004F6B
:1026000002D0B1F5806F03D1016821F04001016073
:10261000A16AB1F5005F07D1016821F400510160A2
:10262000016841F400510160012084F8510000204C
:1026300084F85000032002B0BDE8F081704700002C
:102640002DE9F04383B040F29050C2F200000468DC
:1026500000212046002502F0FFFA58B90021C4F2FB
:102660004821204602F0FFFA2546002804BF002535
:10267000C4F24825284602F045FA43F23333C4F247
:1026800003034FF0333202F051F802F00DF804303A
:102690004FF00109C2B204200F210023CDF80090B1
:1026A00000F04AFB04200F217C220023CDF800908B
:1026B00000F00AFB0420112100F0B4FF46F29678E6
:1026C000C0F600080DF1070420460521424600230C
:1026D000FDF78AFD46F27070C0F60000D0E9006791
:1026E0008568204631463A462B46CDF8009001F0E9
:1026F00085F97220112100F095FF20460521424600
:102700003223FDF771FD204631463A462B46CDF87F
:10271000009001F073F903B0BDE8F083FEF7F0BB61
:10272000704700002DE9F04F81B042F63440C4F20A
:102730000100016846688DB2284602F09DFB044600
:10274000284601F0E0FF0B464EF260310246C4F22B
:10275000761100204FF0000A01F04CFE01F070FDF0
:1027600040F2A441C2F200010860B0B202F084FB62
:10277000214602F08BFA40F27006C2F2000640F2E7
:10278000A0413278C2F20001086006EB8201486085
:10279000501CC1B20829307062D3D6E90110D6E9C5
:1027A000034502F0DBF90146204602F0D7F9014665
:1027B000284602F0D3F9716902460846114602F034
:1027C000CDF9B16902460846114602F0C7F9F16930
:1027D00002460846114602F0C1F9316A024608462F
:1027E000114602F0BBF94FF0785102F0C1FB02F044
:1027F00089F947F6E1224EF24713CAF61462CBF686
:10280000F67304460D4601F091FF4BF652024DF26D
:10281000EB1383460F46C8F21E52C4F26A032046E9
:10282000294601F083FF80468946584639462246AC
:102830002B4601F07BFF42464B4601F033FD42F24E
:102840006663CCF251034FF0663201F02BFD01F0CC
:10285000F7FC40F29051C2F20001086086F800A037
:1028600040F20050C2F2000001B0BDE8F04FFFF7A7
:102870001BBC000010B586B040F24850C2F2000008
:10288000FFF712FC40F29C40C2F20000017840F2D7
:1028900094540131CAB20A2AC2F20004017007D16D
:1028A00040F29051C2F200010968216000210170DC
:1028B000FFF7C6FE2320282100F0B4FE206802F0B6
:1028C00021F946F28E7202AC0B460090C0F600026F
:1028D000204610210193FDF787FC46F26470C0F694
:1028E000000090E80E004FF0010C2046CDF800C02B
:1028F00001F084F85E2029210322012300F0E2F890
:1029000000F098FE002000F009FA41F20000C4F245
:1029100001004FF40051FEF7DFFA06B010BD0000D1
:1029200080B5D0F800E0DEF80800D1E900C320F05F
:10293000770023F0070210434FEA331340EA0C00FC
:10294000072BCEF8080009D80020DFE803F00505C2
:10295000050509233D5700BF80BD00BF012080BD94
:10296000BCF1050F04BF012080BDDEF82000DEF8B9
:10297000202022F00102CEF82020DEF8182009697C
:1029800022F0F00242EA0111CEF81810CEF8200031
:10299000002080BD88680969DEF82020DEF820303C
:1029A00022F00A0223F00103CEF82030DEF81830BE
:1029B000104323F0F00343EA0111CEF81810CEF8CB
:1029C0002000002080BD00BF88680969DEF8202053
:1029D000DEF8203022F0A00223F01003CEF82030E1
:1029E000DEF8183042EA001023F4704343EA013164
:1029F000CEF81810CEF82000002080BDD1E90202E8
:102A00000969DEF80830104323F47F4340EA0120CF
:102A10001843CEF80800002080BD0000FEE700004B
:102A200090B0FEF77BFA00240120CDE90B44CDE9FC
:102A3000094406900A904FF4E0104FF480310225CB
:102A40000F9006A8CDE90714CDE90D51FEF7F0FB74
:102A500020B1EFF3108072B6FEE700BF0F20CDE982
:102A600001054FF48060CDE9040401A8022103941C
:102A7000FEF7FEFA20B1EFF3108072B6FEE700BF5A
:102A8000FFF700FCFFF7A2FCFFF778FCFFF722FD41
:102A900040F20054C2F200042046FFF74DF82046F1
:102AA0000021FFF789FA20460421FFF785FA40F25A
:102AB0004850C2F20000FFF73FF800F0EBF900BF0A
:102AC000FEE700002DE9F04F82B0984643B2002B9C
:102AD00000F1F6803F2900F2F3800223A3EB4209C4
:102AE00052420026CDE900800DE000BF4F46531C46
:102AF0009145C8BF1A4607EB4303C8BF5F1C012AB4
:102B0000B94680F2DD80871A4FFA87FE75180B46AA
:102B10005FFA87FABEF1000F5FFA85FC24D4BCF19E
:102B20003F0F21D805F007040121B8F1010F01FA88
:102B300004F80CF0F80440F29C010AEB0414C2F211
:102B4000000133D10D5D45EA08050D55141865B235
:102B50005FFA84FB002D4FF0000448BF012442D4EB
:102B6000BCF13F0F15D93EE0141867B25FFA84FB41
:102B7000002F4FF0000448BF012436D4BCF13F0FB2
:102B800033D805F007050120B8F1010F00FA05F868
:102B90001DD10CF0F80740F29C000BEB0717C2F2B6
:102BA0000000C55D45EA08051CE000BF0D5D25EA93
:102BB00008050D55141865B25FFA84FB002D4FF01F
:102BC000000448BF01240ED4BCF13F0F0BD80CF019
:102BD000F80740F29C000BEB0717C2F20000C55D3E
:102BE00025EA0805C555DDF800809F1B1946FDB292
:102BF000E4B93F2D1AD807F007070120B8F1010FFB
:102C000000FA07F42ED16FF0700000EA051740F2C9
:102C10009C0007EB0B03C2F20000C55CBEF1000F85
:102C200045EA0405C554019812D538E00198BEF173
:102C3000000F34D43F2D32D807F007030127B8F135
:102C4000010F07FA03F41FD16FF0700303EA0517B1
:102C500040F29C0507EB0A03C2F20005EF5C274334
:102C60001CE000BF05F0F80740F29C000BEB0717D3
:102C7000C2F20000C35DBEF1000F23EA0403C35596
:102C800001980CD43F2D0AD805F0F80340F29C05BA
:102C90000AEB0313C2F20005EF5CA743EF54B14502
:102CA0003FF724AF013609EB4603D64203F1010793
:102CB0007FF41DAF91454FF00003D8BF994616E74A
:102CC00002B0BDE8F08F00002DE9F04182B0DDF8E0
:102CD00020801D460B4617460C460646CDF8008060
:102CE00000F0EAFB384621463A462B46CDF80080F4
:102CF00000F0E2FB3846294632462B46CDF80080EC
:102D000000F0DAFB3046294632462346CDF80080F3
:102D100000F0D2FB02B0BDE8F081000080B50246B1
:102D2000002840F29C00C2F200004FF4806118BFFE
:102D3000FF22FDF764FB80BD2DE9F0479042174666
:102D400038BF074699429C4638BF8C46BCF13F0FBE
:102D500000F29D807FB2002F00F19980089E994279
:102D600088BF0B46904288BF0246F8B240F29C0EE4
:102D7000012E00F102094FEA0C1AC2F2000E4FF0C8
:102D8000010843D10AF478600EEB00050CF007004F
:102D900008FA00F64F4600BFEC1914F8020CB91EF1
:102DA0003043914204F8020C24D2781E10F08001C6
:102DB00020D114F8011C904241EA060104F8011CDC
:102DC00018D217F0800015D1E85D974240EA06005E
:102DD000E8550FD2781C10F080010BD16178904239
:102DE00041EA0601617005D2B81C10F0800007F1BD
:102DF0000407D1D09C454AD2BCF13F0F0AF1100A1A
:102E00000CF1010C28BFBDE8F087BBE70AF478603D
:102E10000EEB00050CF0070008FA00F0C6434F4621
:102E2000EC1914F8020CB91E3040914204F8020C5F
:102E300024D2781E10F0800120D114F8011C904299
:102E400001EA060104F8011C18D217F0800015D120
:102E5000E85D974200EA0600E8550FD2781C10F0B2
:102E600080010BD16178904201EA0601617005D2C0
:102E7000B81C10F0800007F10407D1D09C4506D2A1
:102E8000BCF13F0F0CF1010C0AF1100ABED3BDE8F2
:102E9000F08700002DE9F04381B040F60044C4F211
:102EA00001042046042101224FF00108FEF71CF81E
:102EB0002046012100220026FEF716F80A20FDF721
:102EC000DBFE204601210122FEF70EF80A20FDF765
:102ED000D3FE6420FDF7D0FE40F29407AE20C2F28C
:102EE00000078DF803002046042100223E70FDF704
:102EF000FBFF204602210022FDF7F6FF40F2A84525
:102F0000C2F200050DF10301284601224FF0FF3304
:102F1000FEF7F0FB204604210122FDF7E5FF4FF00C
:102F200020092046042100228DF80390FDF7DCFFE4
:102F3000204602210022FDF7D7FF0DF103012846AC
:102F400001224FF0FF33FEF7D5FB2046042101227A
:102F5000FDF7CAFF2046042100228DF80360FDF72B
:102F6000C3FF204602210022FDF7BEFF0DF1030141
:102F7000284601224FF0FF33FEF7BCFB2046042118
:102F80000122FDF7B1FFB0208DF803002046042197
:102F90000022FDF7A9FF204602210022FDF7A4FF31
:102FA0000DF10301284601224FF0FF33FEF7A2FB8B
:102FB000204604210122FDF797FFC8208DF8030069
:102FC000204604210022FDF78FFF20460221002227
:102FD000FDF78AFF0DF10301284601224FF0FF3370
:102FE000FEF788FB204604210122FDF77DFF2046E5
:102FF000042100228DF80360FDF776FF20460221B0
:103000000022FDF771FF0DF10301284601224FF068
:10301000FF33FEF76FFB204604210122FDF764FF1A
:1030200010208DF80300204604210022FDF75CFFEC
:10303000204602210022FDF757FF0DF1030128462B
:1030400001224FF0FF33FEF755FB204604210122F9
:10305000FDF74AFF40208DF803002046042100229E
:10306000FDF742FF204602210022FDF73DFF0DF152
:103070000301284601224FF0FF33FEF73BFB2046B9
:1030800004210122FDF730FF81208DF80300204646
:1030900004210022FDF728FF204602210022FDF72F
:1030A00023FF0DF10301284601224FF0FF33FEF705
:1030B00021FB204604210122FDF716FFFF208DF899
:1030C0000300204604210022FDF70EFF20460221C6
:1030D0000022FDF709FF0DF10301284601224FF000
:1030E000FF33FEF707FB204604210122FDF7FCFE1B
:1030F000A1208DF80300204604210022FDF7F4FEF4
:10310000204602210022FDF7EFFE0DF103012846C3
:1031100001224FF0FF33FEF7EDFA20460421012291
:10312000FDF7E2FEA6208DF80300204604210022D0
:10313000FDF7DAFE204602210022FDF7D5FE0DF153
:103140000301284601224FF0FF33FEF7D3FA204651
:1031500004210122FDF7C8FEA8208DF803002046B7
:1031600004210022FDF7C0FE204602210022FDF7C7
:10317000BBFE0DF10301284601224FF0FF33FEF79D
:10318000B9FA204604210122FDF7AEFE3F208DF85A
:103190000300204604210022FDF7A6FE204602215E
:1031A0000022FDF7A1FE0DF10301284601224FF098
:1031B000FF33FEF79FFA204604210122FDF794FE1B
:1031C000A4208DF80300204604210022FDF78CFE88
:1031D000204602210022FDF787FE0DF1030128465B
:1031E00001224FF0FF33FEF785FA20460421012229
:1031F000FDF77AFED3208DF803002046042100223B
:10320000FDF772FE204602210022FDF76DFE0DF152
:103210000301284601224FF0FF33FEF76BFA2046E8
:1032200004210122FDF760FE2046042100228DF8D2
:103230000360FDF759FE204602210022FDF754FEEF
:103240000DF10301284601224FF0FF33FEF752FA39
:10325000204604210122FDF747FED5208DF803000A
:10326000204604210022FDF73FFE204602210022D5
:10327000FDF73AFE0DF10301284601224FF0FF331E
:10328000FEF738FA204604210122FDF72DFEF0203A
:103290008DF80300204604210022FDF725FE20467C
:1032A00002210022FDF720FE0DF103012846012234
:1032B0004FF0FF33FEF71EFA204604210122FDF7EE
:1032C00013FED9208DF80300204604210022FDF7CB
:1032D0000BFE204602210022FDF706FE0DF1030140
:1032E000284601224FF0FF33FEF704FA204604215E
:1032F0000122FDF7F9FD22208DF80300204604216C
:103300000022FDF7F1FD204602210022FDF7ECFD31
:103310000DF10301284601224FF0FF33FEF7EAF9D1
:10332000204604210122FDF7DFFDDA208DF803009D
:10333000204604210022FDF7D7FD2046022100226D
:10334000FDF7D2FD0DF10301284601224FF0FF33B6
:10335000FEF7D0F9204604210122FDF7C5FD122019
:103360008DF80300204604210022FDF7BDFD204614
:1033700002210022FDF7B8FD0DF1030128460122CC
:103380004FF0FF33FEF7B6F9204604210122FDF786
:10339000ABFDDB208DF80300204604210022FDF761
:1033A000A3FD204602210022FDF79EFD0DF1030141
:1033B000284601224FF0FF33FEF79CF920460421F6
:1033C0000122FDF791FD2046042100228DF8039093
:1033D000FDF78AFD204602210022FDF785FD0DF153
:1033E0000301284601224FF0FF33FEF783F9204600
:1033F00004210122FDF778FD8D208DF80300204681
:1034000004210022FDF770FD204602210022FDF775
:103410006BFD0DF10301284601224FF0FF33FEF74B
:1034200069F9204604210122FDF75EFD14208DF884
:103430000300204604210022FDF756FD204602210C
:103440000022FDF751FD0DF10301284601224FF046
:10345000FF33FEF74FF9204604210122FDF744FD1A
:10346000AF208DF8030020460421002287F8008059
:10347000FDF73AFD204602210022FDF735FD0DF152
:103480000301284601224FF0FF33FEF733F92046AF
:1034900004210122FDF728FD40F29C00C2F2000049
:1034A0004FF48061FCF7B3FF00F0C4F8C7F8026086
:1034B00001B0BDE8F0830000B2EB000C48BFCCF1D6
:1034C000000C2DE9F04F81B0B3EB010E48BFCEF1F7
:1034D000000E82424FF0FF3B56B2DDF828804FF0DD
:1034E000FF3A88BF4FF0010B8B4288BF4FF0010AB3
:1034F000002EACEB0E0600932AD43F2B28D803F005
:1035000007074FF00109B8F1010F09FA07F903F0B5
:10351000F80713D140F29C0802EB0714C2F200082E
:1035200018F80470904247EA090708F8047008BFC9
:10353000994273D0CEF1000914E000BF40F29C0420
:1035400002EB0715C2F20004675D27EA0907675519
:10355000904208BF994261D0B8F1010FCEF1000945
:103560002ED100BFCCB23F2C16D844B2002C13D4BD
:10357000C4B201F0F80804EB081440F29C08C2F24F
:10358000000801F0070518F80470012303FA05F597
:10359000009B3D4308F80450B9EB460F3446BCBFCE
:1035A000A4EB0E045844C5B2BCEB460FC4BF514453
:1035B000644495422646D5D1CCB29C42D2D12DE06E
:1035C00040F29C04C2F20004CDB23F2D13D845B2A4
:1035D000002D10D4C3B201F0F80703EB071801F077
:1035E000070514F80870012303FA05F5009B27EA84
:1035F000050504F80850B9EB460F3746BCBFA7EBEA
:103600000E075844C5B2BCEB460FC4BF51446744D3
:1036100095423E46D8D1CDB29D42D5D101B0BDE84C
:10362000F08F000040F29402C2F2000250809180BC
:10363000704700002DE9F04F81B040F6004440F2A1
:103640009C0540F2A846C4F20104C2F20005C2F291
:1036500000060DF101080DF102094FF0100B0DF1FC
:1036600003074FF0000A00BFAAF150008DF80100D7
:10367000204604210022FDF737FC204602210022CB
:10368000FDF732FC3046414601224FF0FF33FEF792
:1036900031F8204604210122FDF726FC00208DF898
:1036A0000200204604210022FDF71EFC20460221D4
:1036B0000022FDF719FC3046494601224FF0FF3346
:1036C000FEF718F8204604210122FDF70DFC2046E4
:1036D000042100228DF803B0FDF706FC20460221EC
:1036E0000022FDF701FC3046394601224FF0FF333E
:1036F000FEF700F8204604210122FDF7F5FB2046E5
:1037000004210022FDF7F0FB204602210122FDF7F3
:10371000EBFB3046294680224FF0FF33FDF7EAFFEE
:10372000204604210122FDF7DFFB0AF1010ABAF16C
:10373000080F05F1800597D101B0BDE8F08F0000BA
:103740002DE9F04F89B0A0F17F0717F15F0F10D37B
:1037500040F29407C2F20007B7F802E0CCB204EBE3
:103760000E05802D05D80E0ABD88F6B27719402FB8
:1037700004D9002009B0BDE8F08F00BF002E0592EB
:10378000CDE90034029000F023810198002800F078
:103790001F81029801F00301A0F1200206FB02F054
:1037A0000490019840F29C0C421E0691441A00219C
:1037B000C2F2000C0392CDE9076509E003EA0900B3
:1037C0000CF80200079E0131089DB14200F0008113
:1037D0004A19D3B23F2BF5D8049802F007050B180D
:1037E00005984FF0000B30F81330012000FA05F86F
:1037F000039888F0FF0903284FF4786000EA021A62
:1038000022D206980028DDD00BEB0E0203FA0BF350
:10381000D5B2180402F0800640F18C80002E40F0F2
:103820009580554412981CF80560012840F08A8064
:1038300046EA080088E000BF05EA09000CF802002B
:103840000BF1040B5C45DCD003FA0BF20EEB0B051D
:103850001704EEB205F080070AD5A7B956441298AE
:103860001CF8067001280AD147EA080709E000BFE2
:103870004FB9564412981CF806700028F4D007EA95
:1038800009070CF806706F1CFEB2500407F08007A1
:103890000AD5A7B9564412981CF8067001280AD117
:1038A00047EA080009E000BF4FB9564412981CF8D7
:1038B00006700028F4D007EA09000CF80600A81CDE
:1038C0009704C6B200F080070AD5A7B956441298EB
:1038D0001CF8067001280AD147EA080009E000BF79
:1038E0004FB9564412981CF806700028F4D007EA25
:1038F00009000CF80600E81CD204C5B200F08002F2
:103900000AD5002A9CD105EB0A0212981CF8025035
:1039100001287FF491AF0AE0002A7FF491AF05EB14
:103920000A0212981CF8025000287FF485AF45EA7D
:10393000080083E756B9554412981CF80560002822
:103940003FF476AF06EA09000CF805000698012856
:103950003FF438AF501C5E04C5B200F0800609D5B4
:103960009EB9554412981CF80560012809D146EA11
:10397000080008E04EB9554412981CF8056000286C
:10398000F5D006EA09000CF80500069802283FF475
:1039900019AF901C9B04C2B200F080030AD5002B23
:1039A0007FF410AF524412981CF8023001287FF4C3
:1039B00005AF09E0002B7FF405AF524412981CF8C4
:1039C000023000287FF4FAAE43EA0800F8E600BFB0
:1039D000009939B1029840F29402014411F8201C78
:1039E00004E000BF029840F294020199C2F2000282
:1039F0007144518009B0BDE8F08F00002DE9F0411D
:103A000082B01C460378DBB1DDF8208015460E46F7
:103A1000471C00BFD8B231462A462346CDF8008065
:103A2000FFF78EFE17F8011C884204D117F8013BFE
:103A3000002BEFD10021084602B0BDE8F08100BFA5
:103A40000021084602B0BDE8F0815FEA400C08BFE3
:103A500091F0000F4FEA8C234FEAC12243EA515103
:103A60004FEA1C5018BF00F5F0404FEA300018BF75
:103A700041F000415FEA6C5C00F02980BCF1FF3F3F
:103A800008BF40F080407047130C06BF12044FF08F
:103A9000100C4FF0000C130E04BF12020CF1080CB6
:103AA000130F04BF12010CF1040C930F04BF92001A
:103AB0000CF1020CD30F04BF52000CF1010C1146A3
:103AC0004FF00002A0F11F00A0EB0C00704711F0B6
:103AD000004F08BF704731F000413FF4D5AF0B0CE9
:103AE00006BF09044FF0100C4FF0000C0B0E04BF82
:103AF00009020CF1080C0B0F04BF09010CF1040CB6
:103B00008B0F04BF89000CF1020CCB0F04BF4900DE
:103B10000CF1010CCCF1200322FA03F341EA03017A
:103B200002FA0CF2A0EB0C0000F10100704700005B
:103B300023F07F4720F07F4C80EA030000F0004034
:103B4000ACEB070303F57C5303F1FF032DE9804938
:103B500009B44FEA144324EA03484FEA154B25EA17
:103B60000B4E0FF2042606EB13273E7803FB066785
:103B7000C7F5000707FB06F64FEAD64606F1020630
:103B80004FEA543707FB066CCCF1005C4FEA1C4748
:103B90002CEA074C0CFB06F507FB06F404EB154674
:103BA0004FEA961649085FEA320234BF00204FF010
:103BB00000404FEAD13706FB07FC4FEA1C4C0CFBD8
:103BC0000BF7D21B03FB0CF761EB07010CFB0EF7A5
:103BD000B0EB074072EB17420CFB08F734BFA2EBC7
:103BE0000742B2EB074261EB17414FEA0C444FEA40
:103BF000910706FB07FC4FEA1C4C0CFB0BF7B0EBE4
:103C0000C74072EB573203FB0CF734BFA2EBC7423D
:103C1000B2EBC74261EB57310CFB0EF7B0EBC700BC
:103C200072EB57720CFB08F734BFA2EBC702B2EB82
:103C3000C70261EB57714FEA816141EA92114FEA85
:103C4000826242EA90124FEA806004EBCC04039F48
:103C50004FEAD13706FB07FC4FEA1C4C0CFB0BF775
:103C6000D21B03FB0CF761EB07010CFB0EF7B0EB6B
:103C7000074072EB17420CFB08F734BFA2EB074278
:103C8000B2EB074261EB17414FEA8C5504EB9C24E1
:103C90004FEA910706FB07FC4FEA1C4C0CFB0BF7A5
:103CA000B0EBC74072EB573203FB0CF734BFA2EB0B
:103CB000C742B2EBC74261EB57310CFB0EF7B0EBDA
:103CC000C70072EB57720CFB08F734BFA2EBC702B8
:103CD000B2EBC70261EB57714FEA816141EA921181
:103CE0004FEA826242EA90124FEA806015EB4C255F
:103CF00044F100044FEAD13706FB07FC4FEA1C4CA5
:103D00000CFB0BF7D21B03FB0CF761EB07010CFB61
:103D10000EF7B0EB074072EB17420CFB08F734BF0D
:103D2000A2EB0742B2EB074261EB17414FEA813148
:103D300041EA92414FEA823242EA90424FEA8030B1
:103D40004FEA0C7615EB1C1544F1000448EA0343D6
:103D50004EEA0B484FF0000EB2EB080C71EB030774
:103D600024BF624639464EEB0E0E4FF0000B001892
:103D7000524149414BEB0B0BB2EB080C71EB0307C3
:103D80007BF1000B24BF624639464EEB0E0E4FF01E
:103D9000000B0018524149414BEB0B0BB2EB080CE6
:103DA00071EB03077BF1000B24BF624639464EEBF3
:103DB0000E0E51EA020718BF46F0010616EB0E760A
:103DC00055F1000254F1000103D5BDE88901BDE8B9
:103DD0000088BDE88901BDE80048B619524141EBB1
:103DE0000101A3F10103704780807F7E7D7C7B7A97
:103DF0007978777676757473727171706F6E6E6D97
:103E00006C6C6B6A6A69686867666665646463633C
:103E100062616160605F5F5E5E5D5D5C5C5B5B5AC2
:103E20005A5959585857575656555555545453532F
:103E300052525251515050504F4F4F4E4E4D4D4D8A
:103E40004C4C4C4B4B4B4A4A4A49494948484847D5
:103E50004747474646464545454444444443434313
:103E600043424242424141419C46002B30D47700BC
:103E70002BD04FEA37071CB503B44FF010004FF0BA
:103E80001001BAF1000F06D0BCF1000FDCBF40F00A
:103E9000080040F008014FF000000FBCBDE81040E2
:103EA0000BF1010BBBF1010F08BF5FEA170722BF3F
:103EB00012F1010211F101014FF0004143F1000341
:103EC00000F0004043EA00007047F9D35708D0E7FC
:103ED00046EA06464FEA164613F1400F1FDD13F17E
:103EE000200FDFBF16430A46002120335B42BED0BD
:103EF000C3F1200746EA06464FEA164602FA07F7DC
:103F000046EA070622FA03F2C3F1200701FA07F78F
:103F100042EA070221FA03F14FF00003A7E746EA5D
:103F2000020646EA06464FEA164646EA0106BCBFC6
:103F300046EA0646360C4FF000034FF000024FF001
:103F4000000194E72DE9804C70B49A46934691E8BD
:103F5000380007C831EA400C48BF34EA430C03D5A7
:103F6000FFF7E6FDFFF780FFF0BCBDE8008C2DE910
:103F7000804C70B49A46934691E8380007C810F018
:103F8000804F08BF13F0804F03D100F005F8FFF712
:103F90006BFFF0BCBDE8008C20F07F4723F07F4C26
:103FA00080EA030000F0004007EB0C03A3F57C530C
:103FB000A3F1FE0392F0000F00F0B38095F0000F24
:103FC00000F077802DE901494FEA114021EA0048CD
:103FD0004FEA144624EA064700FB06FC08FB06F6F7
:103FE00007FB08F818EB06484CEB164C00FB07F7EC
:103FF00018EB07484CEB17404FEA124B22EA0B4EE6
:104000004FEA154625EA06470BFB06FC0EFB06F6B3
:1040100007FB0EFE1EEB064E4CEB164C0BFB07F798
:104020001EEB074E4CEB174B18EB0B0840F1000052
:1040300018EB0E0B58EB000840F100008F1A4FF000
:1040400000014FF000063CBFC943661B14BFB5EB2F
:10405000040C00213CBFC943F61B4FEA174427EA72
:1040600004454FEA1C472CEA074C04FB076205FB9A
:1040700007F70CFB05F616EB074642EB174204FB6D
:104080000CFC16EB0C4642EB1C421BEB060658EBF5
:10409000020241414EEA8E0E46EA9E0601D5BDE877
:1040A0000189B619524141EB0101A3F10103BDE8B9
:1040B00001894FEA144524EA05464FEA114721EAEF
:1040C000074C05FB07F406FB07F70CFB06F111EBA9
:1040D000074144EB174405FB0CFC11EB0C4144EB8E
:1040E0001C444FEA124722EA074C05FB07F206FB85
:1040F00007F70CFB06F616EB074642EB174205FBEB
:104100000CFC16EB0C4642EB1C456A1854F10001FE
:1041100048BF7047B619524141EB0101A3F10103B9
:10412000704795F0000F37D04FEA114221EA02465E
:104130004FEA144724EA074C02FB07F106FB07F796
:104140000CFB06F414EB074441EB174102FB0CFC9B
:1041500014EB0C4441EB1C414FEA154725EA074C90
:1041600002FB07F506FB07F70CFB06F616EB074606
:1041700045EB174502FB0CFC16EB0C4645EB1C42CD
:10418000121951F1000148BF7047B619524141EB75
:104190000101A3F1010370474FEA144524EA0546E3
:1041A0004FEA114721EA074C05FB07F106FB07F729
:1041B0000CFB06F212EB074241EB174105FB0CFC2E
:1041C00012EB0C4251EB1C414FF0000648BF704708
:1041D000921841EB0101A3F101037047490050EA35
:1041E000C12018BF04204A0D18BF40F0010040F262
:1041F000FF72B2EB515F08BF40F00200012808BF18
:104200000520704730380A2801D20120704700206D
:104210007047000010B500290AD00878002807D0A0
:1042200005487844FCF7D2FC002801D0002010BDDE
:104230000248784410BD00009A2500009225000035
:1042400021F0004201F00043A2F16052B2F5801F5C
:1042500028BFD2F17F6C0BD95FEA001C43EAC2028F
:1042600042EB507018BF704728BF20F00100704724
:10427000B2F5801FBCBF184670474FEA410C1CF5D1
:10428000001F02D2084600F03ABF70B500F0F8FAFD
:1042900000000089FFF7F6BF4FF00040A0F5800056
:1042A0007047000010B591EA030F48BF83F0004348
:1042B00000F14283841A71EB030C05D2121943EB0F
:1042C0000C03001B61EB0C014FEA1154A4EB135CCF
:1042D000DFF81CE11EEA430F18BF9EEA445F00F0BE
:1042E000748021EA045123EA0E0343F48013DCF1C5
:1042F000200E32D322FA0CFE10EB0E0023FA0CFE35
:1043000041EB0E01CCF1200E03FA0EFE10EB0E0075
:10431000CCF1200E51F10001B1F5801F32D201EB3A
:10432000045112FA0EF2BDE8104058BF7047401C0D
:1043300038BF5FEA420218BF7047002814BF20F060
:10434000010041F100014FEA410313F5001F38BF9E
:104350007047A1F1C04100F0E1BA012A43EB03022A
:10436000ACF1200CDCF11F0E32BF4FF0000E23FA2F
:104370000CF310EB030041EB0451B4EB115FD0D010
:10438000A1EB045101F58011490801EB04515FEAEA
:1043900030000ED350F1000038BF12FA0EFE08D1E3
:1043A000BDE81040C9E7401C38BF5FEA4202CAD1ED
:1043B000C3E7BDE810404FEA410313F5001F38BFC3
:1043C0007047A1F1C04100F0A9BA9EEA445F08D04D
:1043D00011EA5E0FBDE8104004BF01F0004100206B
:1043E0007047BDE8104070B500F04AFA64FBBE3E6D
:1043F0000000E0FF2DE9C04130B4DFF8A4C23CEA80
:10440000111418BF3CEA131400F0ED801CEA1114DB
:1044100081EA030544EAD57418BF1CEA131500F0BD
:10442000C880A4EB050404F17F7404F500344FF058
:10443000004545EAC12145EAC32341EA505143EA18
:1044400052534FEAC0204FEAC222994208BF90421D
:1044500000F09D804FEA13650FF24416765D4FEA37
:10446000134506FB05F7C7F1807706FB07F74FEA10
:10447000D737A7FB03687642A7FB06CEC8F580387E
:1044800038BFA8F1010807FB08E6A6FB028C4FF035
:10449000000EE6FB03CEDCF1000CCEF1004E38BF7F
:1044A000AEF1010EA6FB0C584FF00007E6FB0E879D
:1044B000A1FB08C6A0FB07CE16EB0E064FF00005C9
:1044C00045F10005E1FB076515F1E04E7EBFA4F55F
:1044D00080345FEA46066D4116F1800745F100051C
:1044E0004FEA172747EA05674FEA15254FEA0666A0
:1044F000A6F1DE46B6F1805F20D9384605EBC471DF
:1045000024F0010C01EB0C11BCF1FE6F02D8F0BCE1
:10451000BDE8008124425CBF01F5801E9EEAC47F95
:1045200002D4F0BCBDE80081244200F13980A1F141
:10453000C041F0BCBDE8004100F0F0B94FEAD02026
:1045400040EA41504FEAD1214FEAD22242EA435297
:104550004FEAD323A7FB028607FB036605FB02662F
:104560001EEA0E0F58BFA6EB0056B6EB00564FEAF8
:10457000520E4EEAC37E18EB0E0E56EB530EBCD510
:1045800018EB02085E417F1C55F10005B5E74FF4BA
:1045900080154FF000074FF000064FF00008ACE721
:1045A00001F1C04101F000414FF00000F0BCBDE856
:1045B00000810CEA131511EA0C1F00D00CE013EA7D
:1045C0000C1F00F026804FF0000081EA030101F08B
:1045D0000041F0BCBDE80081F0BCBDE8004181EACB
:1045E000030100F09BB9F0BCBDE8004170B500F0DC
:1045F00047F900BF097EFC3E00F007B84FF000000D
:1046000081EA030101F00041704781EA030100F0F3
:1046100085B9F0BCBDE8004122494FF00000704769
:10462000FFFDFBF9F7F5F4F2F0EEEDEBE9E8E6E477
:10463000E3E1E0DEDDDBDAD8D7D5D4D3D1D0CFCDFE
:10464000CCCBCAC8C7C6C5C4C2C1C0BFBEBDBCBB37
:10465000BAB9B8B7B6B5B4B3B2B1B0AFAEADACAB32
:10466000AAA9A8A8A7A6A5A4A3A3A2A1A09F9F9E0C
:104670009D9C9C9B9A9999989797969595949393BE
:10468000929191908F8F8E8E8D8C8C8B8B8A898955
:1046900088888787868585848483838282818180D8
:1046A0000000FF070000F87F4FEA41034FEA535331
:1046B000A3F58063D3F11E03C8BFD3F1210C0CDD39
:1046C0004FF0004242EAC12242EA505232FA03FC61
:1046D0008CEAE17CACEBE1707047102BC4BF00208A
:1046E000704703F5787CBCF1FF3F04D06FF00042C7
:1046F00082EA2100704770B500F0C2F84992248028
:1047000000207047F2E7B0FA80F310FA03F10AD004
:10471000C3F11D0303F580634FEA03524FEA415092
:1047200002EBD12170474FF00000704770B5DFF801
:1047300048C11CEA111E1EBF1CEA13159EEA0C0F8D
:1047400095EA0C0F00F06F8081EA03044EEAD47EF4
:10475000AE4421EA4C1123EA4C1341F4801143F496
:104760008013AEF17F7EA1FB024CA0FB03653619DE
:1047700055EB0C05A1FB034C4CF10003A0FB021C04
:1047800016EB0C06654153F10003094218BF46F0D1
:10479000010613F4007F0BD14FEA03314FEA0530D5
:1047A00041EA155140EA165034036FF003020AE063
:1047B0004FEAC3214FEAC52041EA555140EA56501D
:1047C000F4026FF0020202EB2E4201EB025585EA81
:1047D000CE710AD05FEA440C18BF24F0004450F1B7
:1047E000000041F1000120EAD47040F2FE7C6245F5
:1047F00000D270BDA84214BF4FF080444FF0404437
:10480000002E08BF0024BEF1806FA8BFA1F1C041F7
:10481000BDE8704080F2828001F1C04101F00041AA
:104820004FF0000070470CEA13159EEA0C0F18BFFA
:1048300095EA0C0F06D081EA030E4FF000000EF04F
:10484000004170BD00F01CF88900013E00F007B87F
:1048500000F009B84FEA430C5FEA5C5C08D081EADB
:10486000030100F05BB84FEA410C5FEA5C5CF6D1F3
:1048700002494FF0000070470000FF070000F87F7A
:104880000EF1020E2EF0030E5EF8046B364205D4D4
:10489000012A43EB030515F5001F12D8012841EB4F
:1048A000010C1CF5001F0CD80ED14FEAD17C0CEB8B
:1048B0004C0C0CF1020C15F5001F08BF4CEBD37C1F
:1048C00004E04FF0080C01E04FEAD37C0CEB4C0500
:1048D00026FA05F606F00706B6F1040C06D20EEB32
:1048E000860CBDE870404CF0010C6047DFE80CF02E
:1048F000090B02024FF00041A1F500214FF000002A
:1049000070BD19461046012851EB010418BFD4F5BB
:10491000001484BF002001F0004170BD0808A0F51C
:1049200000114FEA3101704710B591EA030F48BFFB
:1049300083F000433FF5BEAC841A71EB030C07D241
:104940008CF0004C121943EB0C03001B61EB0C01C3
:104950004FEA1154A4EB135CDFF8A4E11EEA430F05
:1049600018BF9EEA445F00F0B48021EA045123EAB4
:104970006E035242C3EB6E0338BF5B1EDCF1200EA8
:1049800025D322FA0CFE10EB0E0043FA0CFE41EB8D
:104990000E01CCF1200E03FA0EFE10EB0E00CCF14E
:1049A000200E51F1000129D401EB045112FA0EF24C
:1049B000BDE8104058BF7047401C1CBFB2F1004F0B
:1049C000704700280CBF491C20F00100704712EB13
:1049D000020E43EB030218BF4FF0010E4EEA4202F3
:1049E000ACF1200CDCF11E0E56D943FA0CFE10EB94
:1049F0000E00CCF11E0E51F1FF31D5D50EF1010E96
:104A000012FA0EFE404141EB010101EB445C5FEA0A
:104A10005C5C10D901EB045110EBDE7038BFBEF1C5
:104A2000004FBDE8104018BF704700280CBF491C5C
:104A300020F00100704734D24FEAD42C24F40064F3
:104A400011F500111BD0B1FA81F20B3AA41AA41E81
:104A5000D2F12003914030FA03F31943904001EB67
:104A6000CC7101EB0451002CBDE81040A8BF704789
:104A700001F1C04101F000414FF000007047B0FA71
:104A800080F310FA03F102D1BDE810407047E41A38
:104A9000173C4805C90AE2E701EB0451BDE81040A4
:104AA000704749104FEA300001EB0451BDE8104057
:104AB00002E04FF0000170474A0008BF0042F8D002
:104AC000B2F5001F28BF704701F000414FF0000011
:104AD00070479EEA445F07D011EA5E0FBDE81040C0
:104AE00004BF002100207047BDE8104070B5FFF7FB
:104AF000C7FE00BF40DFF63E104683F0004170471E
:104B00000000E0FF43004FEAD30C4FEA3C0C434067
:104B10001FBF40070CF1605113F0FE4F70471CF0AF
:104B2000006F03D10CF00041002070470CF00043EF
:104B300043EA507040EACC0010B500F09AFA00BF8A
:104B4000000000924FEA0001FFF7E8BE4FF000417D
:104B5000A1F500214FF000007047000090EA010F1E
:104B600048BF81F0004100F1D682421A3CBF801A52
:104B700089184FEAD052A2EBD1534FF07F4C1CEA78
:104B8000410F18BF9CEA026F00F03B804FF0004CD1
:104B90004CEA00204CEA012121FA03FC10EB0C0C3A
:104BA0001ED202F1FF325FEA1C2040EBC25038BF38
:104BB00070471CF07F0F4FEA400C18BFBCF17F4FCD
:104BC00038BF7047C3F12003994008BF20F00100AF
:104BD000BCF17F4F38BF7047A0F1C04000F08FBAE2
:104BE0004FEA3C00000A40EBC25028BF1CF0FF0F08
:104BF0004FEA400CE6D018BFBCF17F4F38BF70477A
:104C0000EAE79CEA026F05D010EA5C0F08BF00F0EB
:104C10000040704710B500F02CFA00BF64FBBE3EA8
:104C200010B500F0F5F80CBF0120002010BD10B544
:104C300000F0EEF814BF0120002010BD10B500F008
:104C40002FF98CBF0120002010BD10B500F028F90D
:104C50002CBF0120002010BD10B500F055F994BF05
:104C60000120002010BD10B500F04EF934BF012026
:104C7000002010BD401058BFC0F14040491058BF3F
:104C8000C1F140418142EFF3008070474FF47F0C47
:104C90001CEAD0121EBF1CEAD11392EA0C0F93EA51
:104CA0000C0F00F0858090EA010F48BF42F480723B
:104CB00040F4000C41F400002CF07F4120F07F40D4
:104CC00000B5A2EB030281420FF2081CACEB504E80
:104CD0009EF800E0C0F100004FEA4E0E00FB0EFC13
:104CE00038BF49004FEA2C1C0CFB0EF34FEACE1ED6
:104CF0000EEB635E4FEA112C0EFB0CFC4FEAC12158
:104D00004FEA1C5300FB031102F5FA024FEA112C83
:104D10000EFB0CFC4FEA01314FEADC4C00FB0C119E
:104D200042EB2242C14228BF09184CEB03335DF825
:104D300004EB10EB410143EBC250B2F57C0F38BFDE
:104D4000704729D512F0F00F1CBF00F1C04000F0F1
:104D500000407047008182838485868788898B8C98
:104D60008D8E8F919293959697999A9C9D9FA0A2D4
:104D7000A3A5A7A8AAACAEB0B2B3B5B7B9BCBEC024
:104D8000C2C5C7C9CCCED1D4D7D9DCDFE2E6E9ECC5
:104D9000F0F3F7FAFE0000004FEA400C0CF1807CC3
:104DA000BCF17E4F28BF7047B0F1C04000F0A7B9FA
:104DB0000CEAD11390EA010F48BF42F480726245B9
:104DC00038BF634507D213F47F0F16D080EA010085
:104DD00000F00040704710B500F04BF9097EFC3E32
:104DE00000F005B880EA010000F00040704780EA5A
:104DF000010000F0004000F082B912F47F0F04BF00
:104E00000248704780EA010000F079B90000C07FD5
:104E100050EA010C00F113801CF5000F58BFBCF5DF
:104E2000000F01D48842704707D710F5000F58BF14
:104E300011F5000F15D488427047894270471CF560
:104E4000000F04D5BCF5000FF7D5814270474FF035
:104E5000807C1CEB400F38BF1CEB410F01D281421C
:104E6000704710B500F005F9922449004FF000504A
:104E70004FF08051FFF7FEBEB0FA80F310FA03F254
:104E8000C3F19D030AD0D90501EB1220530638BFA8
:104E9000704700F1010008BF20F0010070470000DA
:104EA00050EA010C00F113801CF5000F58BFBCF54F
:104EB000000F01D48842704707D710F5000F58BF84
:104EC00011F5000F15D488427047894270471CF5D0
:104ED000000F04D5BCF5000FF7D5814270474FF0A5
:104EE000807C1CEB400F38BF1CEB410F01D281428C
:104EF000704710B500F0BDF8922449004FF0805083
:104F00004FF00051FFF7B6BE50EA010C00F11380DC
:104F10001CF5000F58BFBCF5000F01D48842704744
:104F200007D710F5000F58BF11F5000F15D48842B0
:104F30007047894270471CF5000F04D5BCF5000F7F
:104F4000F7D5814270474FF0807C1CEB400F38BF93
:104F50001CEB410F01D28142704710B500F089F877
:104F6000922449004FF000504FF08051FFF782BE6D
:104F70004FF47F0C1CEAD0121EBF1CEAD11392EA38
:104F80000C0F93EA0C0F00F0478090EA010F48BF26
:104F900042F480724FF0004C4CEA00204CEA0121B0
:104FA00002EB0302A0FB0113A2F50002002918BFC7
:104FB00043F001035B0028BF4FEA330342EB224278
:104FC0005FEA132C4CEBC2502EBFBCEB436FB2F523
:104FD0007C0F70474FEA036CBCF1004F08BF20F014
:104FE0000100B2F57C0F38BF70470BD582F0FF028D
:104FF00012F5803FC8BF704700F1C040D8BF00F035
:105000000040704700F5000C5FEA4C0C48BF704749
:10501000B0F1C04000F073B80CEAD11390EA010F70
:1050200048BF42F48072624538BF634504D280EACB
:10503000010000F00040704710B500F01AF800BF02
:105040008900013E00F007B800F009B85FEA410CA2
:105050005FEA1C6C08D080EA010000F050B85FEAFB
:10506000400C5FEA1C6CF6D14FF00040A0F58000C8
:1050700070470EF1020E2EF0030E5EF8044B244230
:1050800004D44FEA4102B2F17F4F11D84FEA4003F6
:10509000B3F17F4F0CD80ED14FEAD07C0CEB4C0C07
:1050A0000CF1020CB2F17F4F08BF4CEBD17C04E055
:1050B0004FF0080C01E04FEAD17C0CEB4C0324FAD2
:1050C00003F404F00704B4F1040C06D20EEB840CD4
:1050D000BDE810404CF0010C6047DFE80CF0070819
:1050E00002024FF00040A0F5800010BD08464200CB
:1050F00018BFD2F1807288BF00F0004010BDFF21C0
:1051000041EAD050C005704790EA010F48BF81F0D6
:1051100000413FF52AAD421A04D882F00042A0EBCC
:10512000020011444FEAD052A2EBD1534FF07F4C12
:105130001CEA410F18BF9CEA026F4AD04FF0004CA6
:105140004CEA00204CEA012121FA03FCB0EB0C0CE4
:105150000FD412F0FE0F36D05FEA4C001DD50012BE
:1051600040EBC25038BF70471CF03F0F18BF70476C
:105170000BE05FEA1C20A2F1010240EBC25038BFF5
:1051800070471CF07F0F18BF7047C3F12003994090
:1051900014BF401E20F0010070474FEA1223800820
:1051A00008BF7047B0FA80FCA2EB0C02CCF1280CCF
:1051B00060FA0CF093EA122F04BF00EBC250704764
:1051C0004FEAC3707047130A5FEADC1008BF7047EC
:1051D000F6E79CEA026F04D010EA5C0F08BF0020DB
:1051E000704710B5FFF745FF40DFF63E81F0004005
:1051F0007047FBF767BA000002400000000000A003
:105200000000000005400000000000C80000000091
:105210000C4000000000409C00000000194000000D
:105220000020BCBE0000000034400000BFC91B8E3F
:1052300000000004B5400000504BCFD06607E2CF1D
:10524000010000006C4100003E8251AADFEEA7344D
:1052500001000000D9420000DCB5A0E23A301F97FF
:10526000FFFFFFFFB4450000FD25A0C8E9A3C14F23
:10527000FFFFFFFFFF3F0000000000800000000074
:10528000FF3F000000000080000000000000000060
:1052900000000000010203040607080900000000E6
:1052A00000000000000000000000000000000000FE
:1052B00000000000000000000000000000000000EE
:1052C0000000000C000C000C000C000C000C000C8A
:1052D000000C000C000C000C0000000C000C000086
:1052E000000000000000001B001B001B001B001B37
:1052F00000000000000000000000000000000000AE
:1053000000000000000000000000801980198019D2
:105310008019C07FC07F80190033C07FC07F0033F9
:105320000033003300330000000000000000001EC6
:10533000003F807580650074003C001E00078005FA
:10534000806580658075003F001E00040004000039
:105350000000007000D840D8C0D880D90073000683
:10536000000C801BC036C066C046C006800300002B
:10537000000000000000001E003F00330033003337
:10538000001E000CC03CC066806380618063C03E2C
:10539000801C0000000000000000000C000C000C4D
:1053A000000C000C000000000000000000000000E5
:1053B000000000000000000000000000800000016C
:1053C0000003000600060004000C000C000C000C9A
:1053D000000C000C00040006000600030001800021
:1053E000002000100018000C000C0004000600064D
:1053F00000060006000600060004000C000C001861
:10540000001000200000000C002D003F001E0033A3
:10541000000000000000000000000000000000008C
:105420000000000000000000000000000000000C70
:10543000000C000C000CC0FFC0FF000C000C000CA6
:10544000000C000000000000000000000000000050
:10545000000000000000000000000000000000004C
:10546000000000000000000C000C00040004000814
:10547000000000000000000000000000000000002C
:105480000000001E001E00000000000000000000E0
:10549000000000000000000000000000000000000C
:1054A0000000000000000000000000000000000CF0
:1054B000000C0000000000000000000300030003D7
:1054C0000006000600060006000C000C000C000C94
:1054D0000018001800180000000000000000001E66
:1054E000003F0033806180618061806D806D8061EC
:1054F000806180610033003F001E0000000000005A
:1055000000000006000E001E003600260006000601
:105510000006000600060006000600060006000061
:10552000000000000000001E003F80738061806169
:10553000800100030006000C001800300060807F2E
:10554000807F0000000000000000001C003E00639F
:1055500000630003000E000E0003800180018061E3
:105560008073003F001E00000000000000000006E5
:10557000000E000E001E001E0016003600360066EB
:10558000807F807F0006000600060000000000000B
:105590000000007F007F006000600060006E007F00
:1055A00080638001800180618073003F001E0000E5
:1055B000000000000000001E003F8033806100609A
:1055C000006E007F80738061806180618033003F66
:1055D000001E0000000000000000807F807F80012E
:1055E0000003000300060006000C000C000C00087D
:1055F0000018001800180000000000000000001E45
:10560000003F8063806180610021001E003F806157
:10561000806180618061003F001E0000000000008A
:105620000000001E003F0073806180618061807314
:10563000803F801D800180610073003F001E0000DC
:105640000000000000000000000000000000000C4E
:10565000000C000000000000000000000000000C32
:10566000000C00000000000000000000000000002E
:1056700000000000000C000C000000000000000012
:105680000000000C000C00040004000800000000F2
:105690000000000080008003000E00380060003829
:1056A000000E8003800000000000000000000000E9
:1056B00000000000000000000000807F807F0000EC
:1056C0000000807F807F00000000000000000000DC
:1056D000000000000000000000000000004000701A
:1056E000001C000780010007001C00700040000043
:1056F00000000000000000000000001F803FC0719B
:10570000C060C000C00180030007000E000C000C48
:105710000000000C000C0000000000000000001E53
:10572000003F803180718063806F806D806D806FFD
:10573000806700600032003E001C00000000000096
:105740000000000E000E001B001B001B001B803120
:105750008031803F803F8031C060C060C060000009
:10576000000000000000007C007E00630063006316
:105770000063007E007E0063806180618063007F43
:10578000007E0000000000000000001E003F80318D
:105790008061006000600060006000600060806107
:1057A0008031003F001E0000000000000000007C6F
:1057B000007F0063806380618061806180618061BF
:1057C000806100630063007E007C00000000000038
:1057D0000000807F807F0060006000600060007FCC
:1057E000007F0060006000600060807F807F0000BC
:1057F000000000000000807F807F0060006000608B
:105800000060007F007F006000600060006000605A
:1058100000600000000000000000001E003F80311A
:1058200080610060006000608063806380618061EF
:105830008031803F001E00000000000000008061F9
:1058400080618061806180618061807F807F806114
:1058500080618061806180618061000000000000E3
:105860000000003F003F000C000C000C000C000C7E
:10587000000C000C000C000C000C003F003F00006E
:105880000000000000008001800180018001800193
:105890008001800180018001806180618073003F10
:1058A000001E0000000000000000C0608061006376
:1058B00000660066006C0078007C0066006600638D
:1058C00080618061C0600000000000000000006096
:1058D00000600060006000600060006000600060C8
:1058E000006000600060807F807F0000000000009A
:1058F0000000C071C071C07BC07AC06AC06AC06E4F
:10590000C064C060C060C060C060C060C0600000B3
:1059100000000000000080718071807980798079BA
:10592000806D806D806D8065806780678067806333
:1059300080630000000000000000001E003F0033F4
:10594000806180618061806180618061806180614F
:105950000033003F001E0000000000000000007E39
:10596000007F80638061806180618063007F007E52
:105970000060006000600060006000000000000047
:105980000000001E003F0033806180618061806103
:1059900080618061806580670033803F401E000029
:1059A000000000000000007E007F80638061806155
:1059B0008063007F007E0066006300638061806119
:1059C000C0600000000000000000000E001F8031D9
:1059D000803100300038001E000780038061806144
:1059E0008031003F001E0000000000000000C0FFEA
:1059F000C0FF000C000C000C000C000C000C000C94
:105A0000000C000C000C000C000C0000000000005A
:105A1000000080618061806180618061806180615F
:105A200080618061806180618073003F001E0000A2
:105A3000000000000000C060C060C06080318031A4
:105A40008031001B001B001B001B000E000E000E0F
:105A500000040000000000000000C0C0C0C0C0C0C2
:105A6000C0C0C0C0C0CC804C804C805E8052805290
:105A70008073806180610000000000000000C0C0F1
:105A8000806080610033003B001E000C000C001E93
:105A9000001F003B80718061C0C00000000000005A
:105AA0000000C0C08061806100330033001E001E12
:105AB000000C000C000C000C000C000C000C000092
:105AC000000000000000803F803F800100030003D1
:105AD0000006000C000C0018001800300060807FE9
